:100000000C9446000C9465000C9465000C946500FB
:100010000C9465000C9465000C9465000C946500CC
:100020000C9465000C9465000C9465000C946500BC
:100030000C9465000C94C1010C9465000C9465004F
:100040000C9465000C9465000C9465000C9465009C
:100050000C9465000C9465000C9465000C9465008C
:100060000C9465000C9465000C9465000C9465007C
:100070000C9465000C9465000C9465000C9465006C
:100080000C9465000C9465000C94650011241FBE4F
:10009000CFEFD0E4DEBFCDBF11E0A0E0B1E0EEE0F5
:1000A000F9E000E00BBF02C007900D92AE34B1073B
:1000B000D9F721E0AEE4B1E001C01D92AA35B20744
:1000C000E1F70E94BC020C9485040C940000CF93CD
:1000D000DF9300D00F92CDB7DEB789837B836A832D
:1000E00089818A3031F48A819B81BC018DE00E9434
:1000F000670080EC90E0FC018081882F90E08072A6
:100100009927892BB1F386EC90E02981FC012083AB
:1001100080E090E00F900F900F90DF91CF910895C5
:10012000CF93DF93CDB7DEB764970FB6F894DEBFF9
:100130000FBECDBF69837A838B839C8380915401EA
:1001400090915501A0915601B09157019C01AD01CC
:1001500069817A818B819C810E94F102882309F454
:1001600091C020E030E0A90169817A818B819C8176
:100170000E94F102882351F481E990E0DC012C9186
:1001800081E990E02870FC01208309C081E990E0BA
:10019000DC012C9181E990E02360FC01208328E5BB
:1001A00039E344E75FE369817A818B819C810E9416
:1001B000F10288234CF488E990E02FEF3FEFDC0157
:1001C00011963C932E934DC020E034E244EF56E468
:1001D00069817A818B819C810E941304181634F402
:1001E00088E990E0FC01118210823BC020E030E001
:1001F00040E053E469817A818B819C810E941804DC
:1002000069877A878B879C8789859A85AB85BC852A
:100210009C01AD0160E074E284EF9AE40E94F60272
:100220006D877E878F87988B8D859E85AF85B889F2
:100230008D839E83AF83B8876D817E818F81988502
:100240000E946803698B7A8B8B8B9C8B89899A8936
:100250009C012150310988E990E0DC0111963C9322
:100260002E9384E990E0FC011182108289819A81A9
:10027000AB81BC818093540190935501A0935601AA
:10028000B0935701000064960FB6F894DEBF0FBE1E
:10029000CDBFDF91CF910895CF93DF93CDB7DEB778
:1002A00080E990E020E4FC01208381E990E02BE0EC
:1002B000FC01208360E070E0CB010E949000000010
:1002C000DF91CF910895CF93DF93CDB7DEB780E96B
:1002D00090E0FC01108281E990E0FC0110820000B6
:1002E000DF91CF910895CF93DF93CDB7DEB781E84B
:1002F00090E02BE0FC01208388E890E02DE730E0DF
:10030000FC01318320838FE690E022E0FC01208312
:1003100084E890E0FC011182108280910E0190919E
:100320000F01A0911001B091110180934F019093A2
:100330005001A0935101B09352018FE590E0FC0170
:1003400020818FE590E02068FC0120830000DF9190
:10035000CF910895CF93DF93CDB7DEB781E890E0DA
:10036000FC0110820000DF91CF910895CF93DF93BD
:10037000CDB7DEB781E080934E010000DF91CF91D1
:1003800008951F920F920FB60F9211240BB60F9281
:100390002F933F934F935F936F937F938F939F938D
:1003A000AF93BF93EF93FF93CF93DF93CDB7DEB7B8
:1003B00080914F0190915001A0915101B091520153
:1003C0000197A109B10980934F0190935001A09327
:1003D0005101B093520180914F0190915001A09131
:1003E0005101B0915201892B8A2B8B2B91F40E94E1
:1003F000B60180910E0190910F01A0911001B09172
:10040000110180934F0190935001A0935101B0933B
:1004100052010000DF91CF91FF91EF91BF91AF9119
:100420009F918F917F916F915F914F913F912F910C
:100430000F900BBE0F900FBE0F901F901895CF938B
:10044000DF9300D000D0CDB7DEB769837A838B838A
:100450009C8389819A81AB81BC8180930E019093AA
:100460000F01A0931001B093110180910E019091A2
:100470000F01A0911001B091110180934F01909351
:100480005001A0935101B093520100000F900F90C2
:100490000F900F90DF91CF910895CF93DF9300D00D
:1004A00000D0CDB7DEB780915801909159010097E7
:1004B000C1F0019761F580E290E0FC018081882F16
:1004C00090E081709927892B39F481E090E0909336
:1004D00059018093580122C010925901109258017D
:1004E0001DC080E290E0FC018081882F90E0817047
:1004F0009927892B39F481E090E0909359018093FA
:1005000058010CC0109259011092580107C081E0A7
:1005100090E0909359018093580100008091580118
:10052000909159010097E1F00197E9F4809153010E
:10053000882F90E0880F991F880F991F8E5E9E4F1D
:10054000FC01208131814281538129833A834B838D
:100550005C8369817A818B819C810E94900004C0B8
:100560001092530101C0000000000F900F900F90F7
:100570000F90DF91CF910895CF93DF93CDB7DEB782
:1005800081E290E0FC01108282E290E02FEFFC011A
:10059000208384E290E02FEFFC01208385E290E04D
:1005A000FC0110826CE271E080E090E00E941F028A
:1005B0000E9473010E944C0185E290E021E0FC0161
:1005C000208381E090E090935901809358010000CE
:1005D00080914E018823E1F310924E010E944D025A
:1005E000F6CF0E949E0308F481E008950E940A035A
:1005F0000C94D9030E94D20358F00E94CB0340F020
:1006000029F45F3F29F00C94C20351110C940D049E
:100610000C94C8030E94EA0368F39923B1F35523AD
:1006200091F3951B550BBB27AA2762177307840705
:1006300038F09F5F5F4F220F331F441FAA1FA9F39B
:1006400035D00E2E3AF0E0E832D091505040E69589
:10065000001CCAF72BD0FE2F29D0660F771F881FEA
:10066000BB1F261737074807AB07B0E809F0BB0BDD
:10067000802DBF01FF2793585F4F3AF09E3F5105F1
:1006800078F00C94C2030C940D045F3FE4F3983EA1
:10069000D4F3869577956795B795F7959F5FC9F7DA
:1006A000880F911D9695879597F90895E1E0660F5B
:1006B000771F881FBB1F621773078407BA0720F0D4
:1006C000621B730B840BBA0BEE1F88F7E09508953D
:1006D0000E946F036894B1110C940D0408950E9458
:1006E000F20388F09F5798F0B92F9927B751B0F0CF
:1006F000E1F0660F771F881F991F1AF0BA95C9F7A6
:1007000014C0B13091F00E940C04B1E008950C9433
:100710000C04672F782F8827B85F39F0B93FCCF3E6
:10072000869577956795B395D9F73EF49095809522
:10073000709561957F4F8F4F9F4F0895990F0008D7
:10074000550FAA0BE0E8FEEF16161706E807F907A3
:10075000C0F012161306E407F50798F0621B730B3E
:10076000840B950B39F40A2661F0232B242B252BBF
:1007700021F408950A2609F4A140A6958FEF811D62
:10078000811D089597F99F6780E870E060E0089503
:100790009FEF80EC089500240A9416161706180699
:1007A0000906089500240A94121613061406050675
:1007B0000895092E0394000C11F4882352F0BB0F06
:1007C00040F4BF2B11F460FF04C06F5F7F4F8F4F69
:1007D0009F4F089557FD9058440F551F59F05F3FA4
:1007E00071F04795880F97FB991F61F09F3F79F053
:1007F00087950895121613061406551FF2CF4695D5
:10080000F1DF08C0161617061806991FF1CF869556
:100810007105610508940895E894BB27662777273A
:10082000CB0197F908950E949E0308F48FEF089575
:100830000E942B040C94D9030E94CB0338F00E9431
:10084000D20320F0952311F00C94C2030C94C8033A
:1008500011240C940D040E94EA0370F3959FC1F3D8
:10086000950F50E0551F629FF001729FBB27F00D5E
:10087000B11D639FAA27F00DB11DAA1F649F6627B3
:10088000B00DA11D661F829F2227B00DA11D621F02
:10089000739FB00DA11D621F839FA00D611D221FBC
:1008A000749F3327A00D611D231F849F600D211DA0
:1008B000822F762F6A2F11249F5750409AF0F1F023
:1008C00088234AF0EE0FFF1FBB1F661F771F881F8C
:1008D00091505040A9F79E3F510580F00C94C203FF
:1008E0000C940D045F3FE4F3983ED4F3869577951E
:1008F0006795B795F795E7959F5FC1F7FE2B880F32
:0E090000911D9695879597F90895F894FFCF6D
:10090E00000000020000000067000000000001006F
:10091E000000A4D0A4437BD49243A4D08243A4D09D
:10092E009243A4D0A443A4D0A443A4D0A4430000D3
:10093E000000A4D09243A4D09243A4D092430000CE
:0E094E000000A4D0A4430000C4430000C44332
:00000001FF
